:020000040001F9
:2000000048100020250201006502010009020100690201006B0201006D0201000000000082
:200020000000000000000000000000006F020100710201000000000073020100F90A010060
:200040007702010077020100770201007702010077020100770201007702010077020100D0
:200060007702010077020100770201007702010077020100770201007702010077020100B0
:20008000770201007702010077020100770201007702010077020100770201007702010090
:2000A000770201007702010077020100770201007702010077020100770201007702010070
:2000C00077020100A10D01007702010077020100F90D01007702010077020100770201008E
:2000E000770201007702010077020100770201007702010077020100770201007702010030
:2001000077020100770201007702010077020100770201007702010077020100770201000F
:200120007702010077020100770201007702010077020100770201007702010077020100EF
:200140007702010077020100770201007702010077020100770201007702010077020100CF
:200160007702010077020100770201007702010077020100770201007702010077020100AF
:2001800077020100770201007702010077020100770201007702010077020100770201008F
:2001A00077020100770201007702010077020100770201007702010077020100770201006F
:2001C00077020100770201007702010077020100770201007702010077020100770201004F
:2001E0007702010077020100770201007702010077020100DFF80CD000F08CF800480047E7
:20020000AD1A01004810002004207146084202D0EFF3098001E0EFF308807146004A104799
:200220009D09010014484FF0590101604FF0160101604FF0880101601048416841F48041EA
:2002400041600F48416841F002014160416841F0040141600B48804707484FF0000101609E
:2002600009480047FEE7FEE7FEE7FEE7FEE7FEE7FEE7FEE7FEE7FEE7000100400002004071
:2002800000700040B90B0100F501010040EA01039B0703D009E008C9121F08C0042AFAD2A2
:2002A00003E011F8013B00F8013B521EF9D270472DE9F05F0546002092469B46884606464D
:2002C000814640241BE0284641464746224600F042F853465A46C01A914110D31146184667
:2002E000224600F029F82D1A67EB01084F4622460120002100F020F817EB00094E41201EC4
:20030000A4F10104DFDC484631462A464346BDE8F09F0000064C074D06E0E06840F001034E
:2003200094E8070098471034AC42F6D3FFF766FF081C0100281C0100202A04DB203A00FA1E
:2003400002F1002070479140C2F1200320FA03F3194390407047202A04DB203A21FA02F0A9
:200360000021704721FA02F3D040C2F1200291400843194670474FF08040D0F8401241F430
:200380008031C0F84012704700F01F0201219140034A800F02EB800002680A4302607047CE
:2003A000040200402DE9F84F0D460446FFF7E3FF4FF08040484ED0F80012C4B141F004010B
:2003C000C0F80012102000F011FA4FF400200090424843492844B34688426DD84FF0000963
:2003E0004FF0FF324F464E46AE46012015E041F00101C0F80012012000F0F8F90020E6E76E
:20040000F2B3032839D0042802D0022805D102E04FEA8E0501E04FEA4E0502236AB3BBFBF2
:20042000F3F1304CDFF8BCC00C44CCF1000C644520D80224C1F35D0ADFF8A0C00AFB04F1DD
:2004400001EB0C08DFF8A0C0E0450ED8B1EB950F02D9A1EB950101E0C1EB9501914204D251
:200460000A0099462746064604D040F20121641C8C42E1D95B1C202BD0D9401C042800E0D7
:2004800000E0BDD91948009900EB8630184A084302EB49210843B91E08434FF08041C1F821
:2004A0004002042000F0A2F906FB09F6BBFBF6F078434000BDE8F88F5CB10E494FF0804025
:2004C000C0F84012042000F091F9BDE8F84F00F0A7B844F21E21F1E7001BB700800F05FD89
:2004E0008074D21A00F7C2FFC068780400C0FFFF00FEFFFF1E4208004FF08041D1F80022B3
:200500000243C1F80022704710B500F031FB0148006810BD0000002010B500F029FB014863
:20052000006810BD000000204FF08040D0F80002C00700D000487047001BB7004FF0804036
:20054000D0F80002800702D54FF40040704700207047000010B500F00BFB4FF08041D1F8DE
:2005600034024207134817D0D1F8342202F00702012A13D0D1F8342202F00702022A10D06C
:20058000D1F8342202F00702032A0DD0D1F8341201F0070104290AD0006810BD0068400843
:2005A00010BD0068800810BD0068C00810BD0068000910BD0000002010B500F0D9FA4FF08F
:2005C0008041D1F8340210F0700F144817D0D1F83422C2F30212012A13D0D1F83422C2F3CF
:2005E0000212022A10D0D1F83422C2F30212032A0DD0D1F83412C1F3021104290AD00068A4
:2006000010BD0068400810BD0068800810BD0068C00810BD0068000910BD00000000002078
:2006200008B510A10020096800914FF08041D1F8401211F4A02F13D10B488A0310D4C1F3DF
:200640000800C1F38132094B801C1DF80220C1F344215843491C11FB02F1B0FBF1F0C000A0
:2006600008BD000001020204001BB700C0C62D0070B54FF080440646D4F8500200F0100590
:200680001B48864200D90646D4F8000240F00400C4F80002102004F5007400F0A7F8206995
:2006A00040F007002061206A20F00F0020622068A4F50074C007314604D00020FFF772FE2A
:2006C000064608E04FF40020FFF76CFE0646D4F8500200F010050021022000F00BF82DB998
:2006E000D4F8000220F00400C4F80002304670BD00B0710B2DE9F0414FF080440746D4F828
:2007000050020E4600F01005D4F8000240F00400C4F80002102004F5007400F067F82069F9
:2007200040F007002061206A20F00F0030432062206920F0070038432061A4F5007400F0CA
:2007400017FA002D05D1D4F8000220F00400C4F80002BDE8F0810000F0B510F47F3F2ED06A
:200760004FF08043D3F8F431DFF878C0DFB21D4BC0F381440C3B6FEA90450CF1040603EB9D
:200780008403012F02D0022C0DD001E0022C02D0AC070AD00AE0C343DC06134B06D000F061
:2007A0001F041D2C02D0634600E033461C68C0F38725C0F34416B540AC4314431C60420E02
:2007C00052070ED0084BC0F30172183B03EB82021368C0F34264C0F304508440A3430B43D1
:2007E0001360F0BD2C0200402802004070B505460B480C4E0124006841080020A2073060B5
:2008000001E0491E06D0D2F8503235EA0300F8D109B103E000244FF0FF303060204670BD31
:2008200000000020400000200248016821F001010160704700C0004010B50E4C236843F07D
:2008400008032360E0606160A26001202061BFF36F8F2069C007FCD12068400608D5216864
:2008600005A000F071FC206840F040002060FEE710BD000000C0004049535043544C203A23
:20088000204953504646283078253258290D0A000248016841F001010160704700C0004003
:2008A0000E4B0F4900221A60CA604860012008610C480A220068B0FBF2F04000021EA0F129
:2008C000010003DDD1F8C020D207F7D1002803DC4FF0FF3018607047886870473C00002046
:2008E00000C00040000000200C4910B509680A22B1FBF2F10A4B002249001A60094A2E24B3
:20090000D46050600120106102E01069002804D0491EFAD24FF0FF30186010BD0000002004
:200920003C00002000C0004010B54FF08040816E21F00F018166816E21F0F0018166816ED9
:2009400021F470618166094C01221146204600F00FF801220221204600F00AF82046012277
:20096000BDE81040042100F003B80000C0410040F0B500230127032507FA03F48C4309D1B8
:2009800006685C0005FA04FC26EA0C0602FA04F4264306605B1C102BEED3F0BD044603A09C
:2009A00000F0D2FB204601F093F8FEE7496E2048617264204661756C742048616E646C65D5
:2009C000720A000000F01F02012191404009800000F1E020C0F8001170474FF080414A68AB
:2009E00002434A6070474FF0804040687047000070B500F061F84FF04020D0F8401121F0BC
:200A0000F001C0F840110420FFF776FD1020FFF7EDFE0120FFF770FD0120FFF7E7FE00219D
:200A20000846FFF767FE1448FFF722FE4FF080440025C4F83452114E3046FFF7A5FC0022A3
:200A40004FF040713046FFF787FEE06B20F47F00E063E06B40F4CC00E063094E3046FFF743
:200A600093FC00224FF4E0413046FFF775FE00F07FF8C4F8005170BD00B0710B103D805791
:200A80000300C05E4FF08040816841F00201816070474FF08040816841F0010181607047CE
:200AA0000121044A814002EB106002680A438A430260704708000040592110B588071622BD
:200AC0008823C0F80011C0F80021C0F80031D0F80041002CF5D010BD06498A691202FCD4F3
:200AE0000A2804D10D220A608A691202FCD40860704700000000074000B501F03DF80349F2
:200B00000868401C00D1086000BD00002C0000200D4A10B5002111600C490968B1FBF0F0C7
:200B2000401EB0F1807F03D309A000F00DFBFEE74FF0E02148610D4AF02082F8140D002050
:200B400088610720086110BD2C000020000000205365742073797374656D207469636B2007
:200B60006572726F7221210A000000000FE000E010B5FFF755FD0E4A4FF080439060D3F80E
:200B8000101201F00701022903D002F10C0050F82100D3F8201201F00F01491CB0FBF1F0E5
:200BA0000449106008444900B0FBF1F0506010BD0000002020A107001A48016841F4700181
:200BC00001601948C16C21F00F0141F00801C1644FF08040D0F8981241F48021C0F89812FD
:200BE000D0F8081241F00201C0F808120F49D1F8042102F0F732C1F80421D1F8082102F0EA
:200C0000F732C1F80821D0F8081221F00201C0F808124FF04020D0F8401121F0F001C0F88F
:200C20004011704788ED00E000C000400010044070B51F4A0C4605469369D800FCD5FFF73D
:200C40003BFFFFF725FE1B4E15B1012D14D109E0012080F310880005FFF746FE306840F0E3
:200C6000020008E0012080F310880020FFF73CFE306820F0020030603CB1012C12D0022CAA
:200C800014D1BDE87040FFF704BFBFF34F8F0A4801680A4A01F4E06111430160BFF34F8F47
:200CA00000BFFDE7BDE87040FFF7ECBE70BD00000000074000C000400CED00E00400FA054C
:200CC00010B50A4C4FF47A724FF00061204600F04BF8206840F0005020602120FFF772FE62
:200CE000206840F08040206010BD00000001054010B588B00446202217496846FFF7C6FA9C
:200D0000164A174B9003944204D1D0F81402C0F3022110E09C4204D1D0F81402C0F30231B8
:200D200009E01049D0F814028C4202D1C0F3024101E0C0F30251022903D05DF8210008B0E9
:200D400010BD944201D09C4202D1FFF703FCF6E7FFF732FCF3E70000E81B01000000054055
:200D6000000105400010054070B516460D460446FFF7BEFF0023B6EB500F01D9022206E000
:200D8000B0FBF6F2130E02D0591CB2FBF1F21D43256062605B1C5A43B0FBF2F070BD000053
:200DA000134800B58168C1F3000100291ED00121816000F0E9FE0F4B58684FF47A71B0FBA1
:200DC000F1F201FB120003F10C0218B9106840F00100106058683221B0FBF1F301FB130085
:200DE000002803D1106840F00200106000BD0000000105402C00002010B50B4CE06910F425
:200E0000885F02D104E000F061F9A1694904FAD5A169204611F0710F05D0BDE810404FF4C6
:200E2000105100F09FB810BD0000074010B52448FFF736FE234C4FF4E131204600F0B0F8D9
:200E40001421204600F038F9A06820F01000A060A06840F02000A060606840F611010843FB
:200E600060602420FFF7AEFDFFF74EFB014616A000F06AF9FFF750FB01461AA000F064F9AF
:200E8000FFF752FB01461DA000F05EF9FFF756FB014620A000F058F9FFF75CFB014623A0DE
:200EA00000F052F9FFF788FB014627A000F04CF9FFF732FB0146BDE810400AA000F044B945
:200EC00010000004000007400D0A434C4B5F47657443505546726571203A202538640D0A7F
:200EE00000000000434C4B5F47657448434C4B46726571203A202538640D0A00434C4B5F5E
:200F000047657448585446726571203A202538640D0A0000434C4B5F4765744C58544672D4
:200F20006571203A202538640D0A0000434C4B5F47657450434C4B3046726571203A2025A9
:200F400038640D0A00000000434C4B5F47657450434C4B3146726571203A202538640D0A4A
:200F6000000000004A0503D570228261082282610A0503D5426942F0010242618A0401D5FA
:200F8000064A82614A0401D51F224264090404D58021C16140F20F3181637047010000015B
:200FA0002DE9FF4104463C480F4600250FC88DE80F003A492E464FF080408C4206D1D0F8D5
:200FC0001412D0F82002C1F301652AE034498C4206D1D0F81412D0F82002C1F381652BE03E
:200FE00030498C4208D1D0F81C12D0F83002C1F3016500F00F0621E02B498C4208D1D0F8DE
:201000001C12D0F83002C1F38165C0F3031615E026498C4208D1D0F81C12D0F83002C1F393
:201020000175C0F3032609E021498C4206D1D0F81C12D0F830028D0FC0F30336002020634B
:201040000320E060A0681B490840A060E846012D02D1FFF7E5FA0190002F1AD058F8251046
:20106000761CB1FBF6F000EB5700B0FBF7F0801EB0F5803F0AD3B1FBF6F000EBC700B0FBAA
:20108000F7F06FF0010101EB101001E040F040506062BDE8FF810000B81B01000000074059
:2010A00000100740002007400030074000400740005007400FFFF0FF026A22F0FF020A4314
:2010C0000262416841F400614160704710B513480068C4B27F2C04D9BDE8104010A000F0FA
:2010E00033B8214613A000F02FF85A2C09D004DC312C0CD0582C0FD103E0782C01D07A2CFA
:201100000AD1FFF7D9FCBDE81040FFF7C2BC0D48016841F00401016010BD00000000074057
:20112000696E76616C696420636F6D6D616E640D0A0000007072657373203A2025630D0A6C
:2011400000000000380000200FB4054B10B503A9044A029800F018F810BC5DF814FB00009B
:20116000E11901004400002002E008C8121F08C1002AFAD170477047002001E001C1121F0D
:20118000002AFBD1704700002DE9FF4F8DB00F460546002606E025280BD0DDE90F1290476F
:2011A0006D1C761C28780028F5D111B03046BDE8F08F0024A246A1460122EC4900E00443B9
:2011C00015F8013F203B02FA03F00842F7D128782A2810D06FF02F022878A0F13001092970
:2011E00014D80AEB8A0102EB410144F0020400EB010A6D1CF0E701CF5FEA000A03D544F491
:201200000054CAF1000A44F002046D1C28782E2817D115F8010F44F004042A280ED06FF02C
:201220002F022878A0F1300109290AD809EB890102EB410100EB01096D1CF2E757F8049B15
:201240006D1C28786C280FD006DC4C2817D068280DD06A2814D104E0742810D07A280FD1EF
:201260000DE044F400140AE044F4801401E044F440146978814202D104F580146D1C6D1CFC
:201280002A786E2A1FD00CDC632A31D004DC002A8BD0582A11D1A3E0642A68D0692A0CD12D
:2012A00065E0732A2ED004DC6F2A73D0702A04D19BE0752A6FD0782A6ED01046DDE90F12AD
:2012C0009047761C50E1C4F30250022806D0032809D0042801CF09D0066045E101CFF1172E
:2012E000C0E9006140E101CF06803DE106703BE117F8040B8DF8000000208DF80100EB4643
:20130000012003E057F804BB4FF0FF3061074FF0000102D40DE008F10101884649450FDAA2
:201320008045F8DB1BF808100029F4D108E008F1010188468142FADB1BF808100029F6D198
:20134000DDE90F23AAEB08008146214600F036F9304400EB080604E0DDE90F121BF8010B54
:201360009047B8F10108F7D221464846F7E00A21C4F302534FF0000B0891022B04D001CF64
:20138000C117032B09D00AE0FF1D27F00707F7E8020108E032E01FE020E000B2C117042BAF
:2013A00001D140B2C117031E71F1000307DA4FF0000CD0EB0C006CEB01012D2302E0230565
:2013C00004D52B238DF82430012303E0E30701D02023F7E7984658E00A2110E010210EE0DA
:2013E00010204FF0000B08900CE010214FF0000B44F004044FF00809089103E008214FF004
:20140000000B0891C4F30253022B04D001CF0021032B06D006E0FF1D27F00707F7E802011D
:2014200003E080B2042B00D1C0B24FF0000823072BD5702A07D0DDF820C08CF0100C5CEAB0
:201440000B0C05D00EE040238DF82430012308E050EA010306D030238DF824308DF8252060
:2014600002239846DDF820C08CF0080C5CEA0B0C0BD150EA010301D1630706D530238DF8BE
:2014800024304FF00108A9F10109582A04D038A20B9208AA0A920BE03AA2F9E75B46089A07
:2014A000FEF706FF0B9B9B5C0A9A521E0A92137050EA0102F2D10A98ADEB000000F1200B0C
:2014C000600702D524F4803401E04FF00109D94502DDA9EB0B0000E0002000EB0B014144C0
:2014E0000890AAEB010AE00306D4DDE90F232146504600F063F806444FF0000908E009A98B
:2015000011F80900DDE90F12904709F10109761CC145F4DBE0030CD5DDE90F2321465046D7
:2015200000F04CF8064404E0DDE90F1230209047761C0899481E08900029F5DC08E00A9886
:201540000A990078491C0A91DDE90F129047761CBBF10001ABF1010BF1DC21465046DDE93B
:201560000F2300F019F806446D1C1BE60928010030313233343536373839616263646566D0
:201580000000000030313233343536373839414243444546000000002DE9F04104460025F3
:2015A0001E461746880404D405E039462020B0476D1C641EF9D52846BDE8F0812DE9F041C7
:2015C000044600251E469046C80301D5302700E02027880404D505E041463846B0476D1C74
:2015E000641EF9D52846BDE8F081000070B5FFF7FAF94FF080450446D5F8F401C0B201285E
:201600003FD03CA0FFF7A0FD686840F2FF110843686021463BA0FFF797FDE00702D03FA0C3
:20162000FFF792FDA00702D541A0FFF78DFD600702D546A0FFF788FD200702D548A0FFF7CB
:2016400083FDE00602D54BA0FFF77EFDA00602D54DA0FFF779FD600602D551A0FFF774FD86
:20166000200602D554A0FFF76FFDE00502D557A0FFF76AFDE00706D00120FFF7AEF95AA092
:2016800032E05EA0BEE7A00704D50220FFF7A5F95EA029E0600704D50420FFF79EF962A065
:2016A00022E0200704D50820FFF797F965A01BE0E00604D51020FFF790F969A014E0A00669
:2016C00004D52020FFF789F96CA00DE0200604D58020FFF782F971A006E0E00508D54FF474
:2016E0008070FFF77AF974A0FFF72EFD002070BD7AA0F9E7504E203A204D343878494441FE
:20170000450D0A00526573657420536F75726365203C3078253038583E0D0A003029504FA3
:201720005220526573657420466C61670D0A000031294E52455345542050696E20526573C7
:20174000657420466C61670D0A000000322957445420526573657420466C61670D0A0000E1
:2017600033294C565220526573657420466C61670D0A00003429424F4420526573657420D0
:20178000466C61670D0A0000352953797374656D20526573657420466C6167200D0A0000E1
:2017A000362948524553455420526573657420466C6167200D0A00003729435055205265EC
:2017C00073657420466C61670D0A00003829435055204C6F636B75702052657365742046AC
:2017E0006C61670D0A000000706F776572206F6E2066726F6D20504F520D0A00504E203A80
:20180000204D343878474341450D0A00706F776572206F6E2066726F6D206E524553455441
:201820002070696E0D0A0000706F776572206F6E2066726F6D205744542052657365740DED
:201840000A000000706F776572206F6E2066726F6D204C56522052657365740D0A00000032
:20186000706F776572206F6E2066726F6D20424F442052657365740D0A000000706F776580
:2018800072206F6E2066726F6D2053797374656D2052657365740D0A00000000706F77656B
:2018A00072206F6E2066726F6D204350552072657365740D0A000000706F776572206F6E59
:2018C0002066726F6D20435055204C6F636B75702052657365740D0A00000000706F7765A9
:2018E00072206F6E2066726F6D20756E68616E646C6520726573657420736F757263650D35
:201900000A00000070B50D4604460B4602461B491BA0FFF719FC1F488169C900FCD5FFF757
:20192000CBF84FF08040D0F8041241F00401C0F804121948016841F0090101602046FEF742
:20194000AFFF034622460D4914A0FFF7FDFB200504D1002221462220FEF76EFF2A46214632
:201960002120FEF769FF2046FEF79AFF2246BDE870400346014912A0FFF7E6BBA91B010077
:2019800025733A30782538582C30782538580D0A000000000000074000C0004025733A302F
:2019A000782538582C20726573756C743A3078253858286265666F7265290D0A000000009D
:2019C00025733A30782538582C20726573756C743A3078253858286166746572290D0A00DC
:2019E00010B50446FFF778F8204610BD10B51C49086801F10C042068C2070ED020F0010063
:201A000020608A68501C8860164917A0FFF79CFB1A48016881F0010101602068810702D5D7
:201A200020F002002060410719D520F00400206000211348FFF766FF12A0FFF785FB022128
:201A40000120FFF7F5F81848016821F008010160FEF7EAFE4FF080410020C1F8000110BDBA
:201A60002C000020A41B010025732874696D657229203A202534640D0A000000C0490040B9
:201A8000FCFF0700506572666F726D2052535420746F20656E74657220424F4F544C4F41DF
:201AA0004445520D0A00000000C00040FEF7A0FFFEF73AFFFFF7BAF9FFF702F9FFF796FD4F
:201AC0004FF47A70FFF724F8FFF790FFFCE7000010B50446016810A0FFF736FB11A0616896
:201AE000FFF732FB12A0A168FFF72EFB13A0E168FFF72AFB14A02169FFF726FB15A06169FE
:201B0000FFF722FB16A0A169FFF71EFBE169BDE8104016A0FFF718BB723020203D2030783E
:201B200025780A00723120203D20307825780A00723220203D20307825780A0072332020FA
:201B40003D20307825780A00723132203D20307825780A006C7220203D20307825780A006E
:201B6000706320203D20307825780A00707372203D20307825780A0002480168491C01600C
:201B8000704700002C00002005484168491C416041684EF66022914201D3002141607047B7
:201BA0002C0000206C6F6F700065726173655F636865636B73756D00001BB700000000008B
:201BC00000800000001BB700001BB7000000000000800000001BB700001BB70000000000BD
:201BE00000800000001BB700001BB70000800000000000000000000000000000102700000A
:201C000000000000001BB700281C0100000000204800000068110100701C010048000020D6
:201C20000010000078110100001BB7000C000000001BB700001BB700008000000000000008
:201C400010270000000000000000000000000000001BB7000000000000000000000000007B
:201C600000000000000000000000000000000000FFFFFFFFFFFFFFFFFFFFFFFFFFFFFFFF74
:201C8000FFFFFFFFFFFFFFFFFFFFFFFFFFFFFFFFFFFFFFFFFFFFFFFFFFFFFFFFFFFFFFFF64
:201CA000FFFFFFFFFFFFFFFFFFFFFFFFFFFFFFFFFFFFFFFFFFFFFFFFFFFFFFFFFFFFFFFF44
:201CC000FFFFFFFFFFFFFFFFFFFFFFFFFFFFFFFFFFFFFFFFFFFFFFFFFFFFFFFFFFFFFFFF24
:201CE000FFFFFFFFFFFFFFFFFFFFFFFFFFFFFFFFFFFFFFFFFFFFFFFFFFFFFFFFFFFFFFFF04
:020000040007F3
:20FFE000FFFFFFFFFFFFFFFFFFFFFFFFFFFFFFFFFFFFFFFFFFFFFFFFFFFFFFFF3D08223086
:00000001FF
